:1000000012C0189518951895189518951895189563
:10001000189531C318951895189518951895189531
:100020001895189518958FE58DBFC8E3E0E24E2E20
:1000300084E08EBFD4E0F4E05F2EA89584B7082E4C
:10004000877F84BF88E1992781BD91BDEEEFF3E002
:10005000A0E6B0E088278D933197E9F7662482E027
:1000600083BF85E886B980EC87B9A5988FEF81BBFF
:1000700070E072BBB89AC098B99AC198BA9AC298FF
:10008000BB9AC398789479B7716079BF79E172BFF0
:1000900080E090E0A0E6B0E08D939C9389EF8093A0
:1000A000630084EA8093640080EB8093650089E9B3
:1000B0008093660082E98093670082E880936800FD
:1000C00088EF8093690080E880936A0080E98093DC
:1000D0006B0080EC80936C0089E780936D0084E274
:1000E00080936E0080E380936F0089E180937000BD
:1000F00082E18093710082E08093720088E78093B0
:10010000730080E08093740080E18093750080E448
:100110008093760000E010E020E030E0A8E7B0E057
:100120000D931D932D933C9381E080937C0000E020
:1001300010E020E030E0ADE7B0E00D931D932D938B
:100140003C9381E080937C0000917C00043110F0AE
:1001500009F02FC0379A85E08093770007B1007FC0
:100160008091770090E0890F082707B994D3A8E71A
:10017000B0E08D939D9388278D938C933798ADE74E
:10018000B0E00D911D912D913C91A8E7B0E04D910B
:100190005D916D917C91C6D3ADE7B0E00D931D9359
:1001A0002D933D93ACE7B0E08C918F5F8C9308F476
:1001B000CBCFADE7B0E00D911D912D913C9144E185
:1001C00050E060E070E0D3D2ADE7B0E04D935D93D6
:1001D0006D937D93ADE7B0E00D911D912D913C9114
:1001E00040E05AE060E070E033D3ADE7B0E00D935B
:1001F0001D932D933D93ADE7B0E00D911D912D9191
:100200003C914FEF53E060E070E0B1D2ADE7B0E079
:100210004D935D936D937D93ADE7B0E00D911D918E
:100220002D913C914AE050E060E070E011D3ADE7E1
:10023000B0E00D931D932D933D9348EE53E060E0A5
:1002400070E0ADE7B0E00D911D912D913C916FD321
:100250000CF401C080C0EDE7F0E0A9E8B0E07DD388
:10026000E9E8F0E0A8E0B4E0FAD3E8E0F4E0A9E8D7
:10027000B0E01127222703E0332716D383E0E9E813
:10028000F0E001E00A93A1E8B0E0EED382E0E9E813
:10029000F0E001E00A93A3E8B0E0E6D381E0E9E80A
:1002A000F0E001E00A93A5E8B0E0DED3A1E8B0E019
:1002B000A4D3A2E6B0E00C9300916200003009F0F4
:1002C00005C080916C0080938F000BC0A2E6B0E067
:1002D000AD90BB24A2E6B0E0AA0DBB1D8C9180932B
:1002E0008F00A3E8B0E089D3A2E6B0E00C930091C0
:1002F0006200003009F005C080916C00809390008E
:100300000BC0A2E6B0E0AD90BB24A2E6B0E0AA0D1F
:10031000BB1D8C9180939000A5E8B0E06ED3A2E65F
:10032000B0E00C9300916200003009F005C08091AC
:100330006C00809391000BC0A2E6B0E0AD90BB24AE
:10034000A2E6B0E0AA0DBB1D8C9180939100809134
:1003500076008093920048EE53E060E070E0ADE7F5
:10036000B0E00D911D912D913C91E1D280E00CF017
:1003700081E08F9340E157E260E070E0ADE7B0E0EC
:100380000D911D912D913C91D2D280E00CF481E031
:100390009F918923882309F49FC0EDE7F0E0A9E845
:1003A000B0E0DBD2E9E8F0E0A8E0B4E058D3E8E060
:1003B000F4E0A9E8B0E01127222704E0332774D243
:1003C00084E0E9E8F0E001E00A93A1E8B0E04CD372
:1003D00083E0E9E8F0E001E00A93A3E8B0E044D369
:1003E00082E0E9E8F0E001E00A93A5E8B0E03CD360
:1003F00081E0E9E8F0E001E00A93A7E8B0E034D357
:10040000A1E8B0E0FAD2A2E6B0E00C93009162005D
:10041000003009F005C080916C0080938F000BC004
:10042000A2E6B0E0AD90BB24A2E6B0E0AA0DBB1DF1
:100430008C9180938F00A3E8B0E0DFD2A2E6B0E019
:100440000C9300916200003009F005C080916C00AF
:10045000809390000BC0A2E6B0E0AD90BB24A2E672
:10046000B0E0AA0DBB1D8C9180939000A5E8B0E090
:10047000C4D2A2E6B0E00C9300916200003009F013
:1004800005C080916C00809391000BC0A2E6B0E0A3
:10049000AD90BB24A2E6B0E0AA0DBB1D8C91809369
:1004A0009100A7E8B0E0A9D2A2E6B0E00C930091D9
:1004B0006200003009F005C08091760080939200C0
:1004C0000BC0A2E6B0E0AD90BB24ACE6B0E0AA0D54
:1004D000BB1D8C918093920040E157E260E070E098
:1004E000ADE7B0E00D911D912D913C9120D280E0BF
:1004F0000CF081E08F9340EA56E861E070E0ADE7F0
:10050000B0E00D911D912D913C9111D280E00CF441
:1005100081E09F918923882309F49FC0EDE7F0E0F3
:10052000A9E8B0E01AD2E9E8F0E0A8E0B4E097D298
:10053000E8E0F4E0A9E8B0E01127222704E033273F
:10054000B3D184E0E9E8F0E001E00A93A1E8B0E08B
:100550008BD283E0E9E8F0E001E00A93A3E8B0E0A1
:1005600083D282E0E9E8F0E001E00A93A5E8B0E098
:100570007BD281E0E9E8F0E001E00A93A7E8B0E08F
:1005800073D2A1E8B0E039D2A2E6B0E00C930091BA
:100590006200003009F005C080916C0080938F00EC
:1005A0000BC0A2E6B0E0AD90BB24A2E6B0E0AA0D7D
:1005B000BB1D8C9180938F00A3E8B0E01ED2A2E611
:1005C000B0E00C9300916200003009F005C080910A
:1005D0006C00809390000BC0A2E6B0E0AD90BB240D
:1005E000A2E6B0E0AA0DBB1D8C9180939000A5E817
:1005F000B0E003D2A2E6B0E00C93009162000030BC
:1006000009F005C080917600809391000BC0A2E6AE
:10061000B0E0AD90BB24ACE6B0E0AA0DBB1D8C9160
:1006200080939100A7E8B0E0E8D1A2E6B0E00C9397
:1006300000916200003009F005C080916C00809349
:1006400092000BC0A2E6B0E0AD90BB24A2E6B0E001
:10065000AA0DBB1D8C918093920088EC90E0E4D0B1
:1006600059CDF894FFCF79B77E7F79BFC09A79E9E9
:1006700072BBFCCF08950F921F922F923F924F9220
:100680005F927F92AF92BF920F931F932F933F93EE
:100690004F935F936F937F938F939F93AF93BF938A
:1006A000CF93DF93EF93FF938FB78F9379E172BF6F
:1006B000A0E6B0E052D0A0E6B0E00D911C910F3062
:1006C00050E0150709F02DC080E090E0A0E6B0E012
:1006D0008D939C93C09AAFE8B0E08C9182BB85E08B
:1006E00090E0A2D0C098C19AA0E9B0E08C9182BB02
:1006F00085E090E099D0C098C198C29AA1E9B0E095
:100700008C9182BB85E090E08FD0C098C198C29850
:10071000C39AA2E9B0E08C9182BB85E090E084D0DE
:10072000C3988F918FBFFF91EF91DF91CF91BF91D0
:10073000AF919F918F917F916F915F914F913F9179
:100740002F911F910F91BF90AF907F905F904F902E
:100750003F902F901F900F901895ED91FC91EF5FB7
:10076000FF4FFC93EE93089500FC05D0089530D020
:1007700005D001F8F9CF37D03FD00895842F952FB9
:10078000A62FB72FE894452B462B472B11F46894DE
:100790000895402F512F622F732F002711272227F2
:1007A0003327F0E2440F551F661F771F001F111FEC
:1007B000221F331F081B190B2A0B3B0B416028F427
:1007C000080F191F2A1F3B1F4E7FFA9559F70895EE
:1007D0000024E89477FF02C006D0689400F809D09E
:1007E00010F80124089512D04F5F5F4F6F4F7F4F75
:1007F0000895E89437FF0895009510952095309559
:100800000F5F1F4F2F4F3F4F6894089540955095AD
:100810006095709508953197F1F70895689462F89E
:100820000895E89462F80895EF93FF93EE27E82B7C
:10083000E92B31F0E8EEF3E03197F1F70197D1F7CA
:10084000FF91EF91089501911191219130810895C7
:100850000F921F922F92C801D901489F80014A9F91
:1008600090014B9F202C499F100D211D321D5A9F36
:10087000202C589F100D211D321D599F200D311D18
:10088000689F200D311D699F300D789F300D2F908E
:100890001F900F900895369A3699FECF369A369962
:1008A000FECF84B195B108952E2E3F2E99278191C8
:1008B0008D3209F093958823D1F79A95E22DF32D87
:1008C000112361F0091718F011F0101B01C0191B5A
:1008D00028F021F080E28D931A95E9F780818D321E
:1008E00019F48D93319604C0222311F08BE28D937D
:1008F000091738F031F0091B21F080E38D930A9538
:10090000E9F781918D938823E1F7332351F0EA2FA2
:10091000FB2F319633958E9182933A95E1F78EE2D3
:100920008C930895040F151F261F371F0895041771
:100930001507260737070895000F111F221F331FC1
:10094000089500951095209530950F5F1F4F2F4FFC
:100950003F4F0895019110810DC075DF0DC073DF09
:1009600010C00191108117FF05C03FEF2FEF04C0A9
:10097000008111272227332737FF03C0E2DF8DE2F2
:100980008D93CF92DF92EF92AA24BB24CC24DD2456
:10099000EE2440E2EAE0FF2755E093E38081890FEF
:1009A00087FD9F7083FD907F891B81935A95A9F7DE
:1009B000C3DFAA1CBB1CCC1CDD1CEE1C4A9551F7E6
:1009C000E894EFE0FF2782910BD0EB30E0F71EF0C8
:1009D00068948A2D09D04D93EF90DF90CF900895C1
:1009E000982F829501D0892F8F70805D26F08033FB
:1009F00009F4089568948D930895002711272227FC
:100A000033271DD08A3328F4803318F005D015D051
:100A1000F9CF0EF496CF089580538F93402F512F26
:100A2000622F732F89DF88DF7DDF86DF8F91992723
:100A3000080F191F291F391F08958D910895E894F3
:100A4000FCDF8032E9F38B32D9F38930C9F38D3280
:100A500011F46894F2CF089588278D9308958191B9
:100A60008D938823E1F7089509919191992359F085
:100A70008A95D9F73197002331F081918D930A95AA
:080A80008823C9F70895E8CFAF
:00000001FF
